:0C0000000C94EA000C9400000C9400002A
:10000C000C9400000C9400000C9400000C94000064
:10001C000C9400000C9400000C9400000C94000054
:10002C000C9400000C9400000C9400000C94000044
:10003C000C94BB020C9400000C9400000C94000077
:10004C000C9400000C9400000C9400000C94000024
:10005C000C9400000C9400000C9400000C94000014
:10006C000C9400000C9400000C9400000C94000004
:10007C000C9400000C9400000C9400000C940000F4
:10008C00C0F9A4B0999282F88090C0F9A4B099926A
:10009C0082F8809000010203040506070809E000BD
:1000AC000000000000000000000000000000000044
:1000BC000000000000000000000000000000000034
:1000CC000000000000000000000000000000000024
:1000DC000000000000000000000000000000000014
:1000EC000000000000000000000025322E326600E7
:1000FC0043656C73697573204368616E6765004D69
:10010C006F74696F6E2044657465637400253033B9
:10011C006420636D004F70656E202020202020200D
:10012C0020202020202020202020202020202020C3
:10013C00202020004D6F74696F6E20456E646564DD
:10014C0000436C6F736500436F6F6C696E6720685A
:10015C0065617420202020202020202020202020B9
:10016C002020202000002D4E414E000001002D4E7D
:10017C00414E00494E4600000A008B058C000A00D7
:10018C00950596000A009F05A0000F000005FC00D5
:10019C000F000F05FC000F001E05FC000E002D05C6
:1001AC000B011F003B0521010D005A054001060003
:1001BC0067054D011E006D0553010A000400EC009B
:1001CC000100B70578010000F894EE27ECBBF1E0D4
:1001DC00F5BFE5BFE0936C00F8E1F1BDE1BD8DE04A
:1001EC00A2E0BB27ED938A95E9F780E090E1A0E0CF
:1001FC00B1E0ED930197E9F7E4E8F1E08591959191
:10020C00009761F0A591B59105901590BF01F00193
:10021C0005900D920197E1F7FB01F0CF8BBFEFEF4B
:10022C00EDBFE0E1EEBFC0E0D5E00C94C702E09179
:10023C006500E4600E94060AED7F0E94060A0E9497
:10024C000B0A71C1E0916500EB7F0E94060AED7FFD
:10025C000E94060A0E940B0A66C1E881F0E00E9427
:10026C001C0A61C1E1E0EA93F8DFE881EA93DFDF81
:10027C005AC1A881B981EC91E03041F0EA93F2DFE8
:10028C00E881F9813196E883F983F3CF4FC0E98196
:10029C00A0E4EA02F001A881EA0FE068EA93D2DF59
:1002AC0045C0E1E00E94200A0895EFEFEABBE0911F
:1002BC006400EF60E09364000895F7DF0E94270A62
:1002CC000E94270A0E94270AEEE00E94200AE6E01C
:1002DC000E94200AE6DF08954424EBE04E1688F4D1
:1002EC00A881B981EAE0F0E00E94230E0E942F0A57
:1002FC0031F4E42DF0E0E557FA4FE081E8BB43948C
:10030C00ECCF4424EBE04E1688F4A881B981EAE0E6
:10031C00F0E00E94590E0E942F0A31F4E42DF0E017
:10032C00EB56FA4FE081E5BB4394ECCF229608954F
:10033C00E0918B05E8BBE0919505E5BB0895159818
:10034C00169A1798EFEFE7BBE4BBE0E0E1BBEFEFE9
:10035C00E2BB0895E0E0E6B9E1E4E7B9E3EAE6B927
:10036C0008951A930A9300E010E0AA81A83018F4BB
:10037C00EFEFFFEFEDC0E7B1E07EE7B9E7B1AE2FED
:10038C00EA81EF71EA2BE7B9369A349BFECF04B1C0
:10039C001127E5B1FE2FE0E00E2B1F2BE091A905F4
:1003AC00F091AA053196E093A905F093AA05E09186
:1003BC00AB05F091AC053196E093AB05F093AC0531
:1003CC00C6C01A930A9300E010E0E4EAE0937400CC
:1003DC00E0917400E07841F40E94390A20F0E0E0EA
:1003EC00F0E00C94D905F4CF0E94400AE09174001F
:1003FC00E07841F40E94390A20F0E0E0F0E00C943F
:10040C00D905F4CFEB810E94470AE0917400E078A3
:10041C0041F40E94390A20F0E0E0F0E00C94D90598
:10042C00F4CFEA810E94470AE0917400E07841F42D
:10043C000E94390A20F0E0E0F0E00C94D905F4CFEA
:10044C00E4E9E0937400E1E0F0E00C94D9050E943B
:10045C00BB0E10E020E030E0E4EAE0937400E091A1
:10046C007400E07831F40E944D0A10F0E0E04BC0CB
:10047C00F6CFED810E94470AE0917400E07831F4E8
:10048C000E944D0A10F0E0E03EC0F6CF0E94400AF8
:10049C00E0917400E07831F40E944D0A10F0E0E035
:1004AC0032C0F6CFE4EAE0937400E0917400E07897
:1004BC0031F40E944D0A10F0E0E025C0F6CFED813A
:1004CC00EF5FE0937300E4ECE0937400E091740050
:1004DC00E07831F40E944D0A10F0E0E014C0F6CF41
:1004EC00E4E8E0937400E0917400E07831F40E9449
:1004FC004D0A10F0E0E007C0F6CF10917300E4E96C
:10050C00E0937400E12F0E94C20E26960895E0E459
:10051C00E09370000895E881EA93E091B605EA93C0
:10052C00E1E5EA934EDF219608951A930A93EA8146
:10053C00EA93E2E0EA938BDFFE2FE0E08F01EA81A1
:10054C00EA93E3E0EA9383DFF0E00E0F1F1FF8015C
:10055C001981088123960895EFE0E3BFE0E0E2BF44
:10056C00EEE0E1BFE2E0E7BF0895EA93EFB7EA936C
:10057C00E091B505EF5FE093B505E991EFBFE99127
:10058C001895EF97EF97ED9781E4AAE7B0E0EAEAC8
:10059C00F0E00E94C70E00E010E020E030E040E008
:1005AC0050E0D8DE8ADE7DDED7DFB1DFE8EEF3E0A7
:1005BC000E941C0A78940E94540AADDFE0E0E0939C
:1005CC00B505BDDEB5DE0E945A0AAF3FEFEFBE07A0
:1005DC0011F40C948903EDE0EA93C3DE8F01F8016A
:1005EC000E945F0AA0E0B0E48CE995E40E942A0D19
:1005FC00DF01CB01E0E0F0E060E074E40E94780DF4
:10060C00DF01CB010E94640ADE01A954BF4FED93B8
:10061C00FD936D937C930E946B0ADE01AD54BF4F2A
:10062C00ED93FD936D937C93E091A905F091AA0550
:10063C00309779F4FE01ED54FF4F019011906191C8
:10064C007081F001DE01A557BF4FED93FD936D93C3
:10065C007C930E945A0A119731F4FE01E557FF4F23
:10066C0034960E94740A0E945A0A129731F4FE01C1
:10067C00E557FF4F38960E94740A0E945A0A139746
:10068C0031F4FE01E557FF4F3C960E94740A0E941C
:10069C005A0A149731F4FE01E557FF4F70960E94E9
:1006AC00740A0E945A0A159731F4FE01E557FF4F60
:1006BC0074960E94740A0E945A0A169731F4FE012D
:1006CC00E557FF4F78960E94740A0E945A0A1797B2
:1006DC0031F4FE01E557FF4F7C960E94740A0E948C
:1006EC005A0A189731F4FE01E557FF4FB0960E9455
:1006FC00740A0E945A0A199731F4FE01E557FF4F0C
:10070C00B4960E94740A20E030E02930E0E03E0705
:10071C00DCF5F9013196AF014A30E0E05E078CF56B
:10072C000E947F0A7F936F93FF93EF930E948A0A34
:10073C00AF91BF918F919F910E94BD0DF8F40E94D3
:10074C008A0ADE01A957BF4FED93FD936D937C93FD
:10075C00FA010E94950A0F010E947F0AD0010E94A3
:10076C008F0EF9010E94950ADE01A957BF4F0D901B
:10077C001D908D919C91D0010E949E0E4F5F5F4FFA
:10078C00CBCF2F5F3F4FC1CF0E945A0A1B973CF132
:10079C00FE01E156FF4F0190119061917081F001C3
:1007AC00DE01AD57BF4FED93FD936D937C930E948B
:1007BC009D0A1B9779F4FE01ED57FF4F01901190A4
:1007CC0061917081F001DE01A158BF4FED93FD9353
:1007DC006D937C93E0E0E093A905E093AA050E9459
:1007EC00A20A0E94A70AFE01E957FF4F019011903F
:1007FC0061917081F0010E94AC0A859934C00E940D
:10080C00B30A0E946B0A0E94B60AE4EFF1E00E9460
:10081C001C0A0E94BE0A0E94C70A43DD0E94CD0A30
:10082C000E94A70A0E94D10A0E94DA0AE0E0F5E0D1
:10083C000E94DF0A1EDDA3EBB5E00E94EA0A859B4D
:10084C0011C0ADEAB5E00E94EA0A3197A091AD055E
:10085C00B091AE0512972CF0E0E0E093AD05E0937B
:10086C00AE0501C0ECCFA091AD05B091AE051197CE
:10087C0011F00C94A80483992DC00E94B30A0E9415
:10088C00F00A0E94DA0C0E94B60A0E94CD0A0E945D
:10089C00A70A0E94D10A0E94BE0A0E94C70A0E949F
:1008AC00DA0AEFE0F5E00E94DF0AE3DC839B11C07B
:1008BC00AFEAB5E00E94EA0A3197A091AF05B0917A
:1008CC00B00512972CF0E0E0E093AF05E093B00593
:1008DC0001C0ECCF84992DC00E94B30A0E94F00A8B
:1008EC000E94D30C0E94B60A0E94CD0A0E94A70A4D
:1008FC000E94D10A0E94BE0A0E94C70A0E94DA0A0C
:10090C00EEE1F5E00E94DF0AB4DC849B11C0A1EBA0
:10091C00B5E00E94EA0A3197A091B105B091B205F9
:10092C0012972CF0E0E0E093B105E093B20501C022
:10093C00ECCF869906C0E0E0E093AD05E093AE0500
:10094C0001C099CF0E949D0A1D9714F40C940C05BC
:10095C000E94F80A10F00C940C050D9902C00F9B24
:10096C0055C09FDC0E94DA0AEDE2F5E00E94110B03
:10097C00A091B505A33410F40C940C050E94540AF4
:10098C00D4DDDE01A858BF4FED93FC93FE01E05B74
:10099C00FF4FFA93EA93E9E1F1E0FA93EA93FE014F
:1009AC00E458FF4F0190F081E02D662777270E94D5
:1009BC00AC0A0E94150BFE01E05BFF4F0E94110B6D
:1009CC000E941B0B56DC0E94540AA5DDE0E0E0936C
:1009DC00B505E4E6F0E00E941C0ADE01A858BF4F02
:1009EC000D90BC91A02DD29788F4CC24DD240E94CC
:1009FC00220B64F40E94270B0E94DA0AEBE3F5E069
:100A0C000E94110BF60131966F01F1CF0E949D0AE5
:100A1C001D97F4F10E94F80AD8F5A0E00D99A1E019
:100A2C00A03029F4A0E00F99A1E0A03009F030C06B
:100A3C0038DC0E94DA0AEAE5F5E00E94110B0E940C
:100A4C00150BE7E6F5E00E94110B0E941B0B0E94B0
:100A5C002E0BF50131965F01E4E6F0E00E941C0AD2
:100A6C00E1E0F0E0AE16BF069CF0CC24DD240E9441
:100A7C00220B64F41E9A85E89FE20197F1F71E9809
:100A8C000E94B30AF60131966F01F1CFAA24BB2460
:100A9C00A091B305B091B405119714F40C94A3056F
:100AAC00FE01E158FF4F0190119061917081F001AE
:100ABC00DE01A558BF4F0D901D908D919C91D001DA
:100ACC000E94BD0D09F010F40C94A3050E94BE0AFF
:100ADC00DE01AD57BF4F0D901D908D919C91D001B3
:100AEC000E94BD0D50F1DDDBEEE1F0E00E941C0A2E
:100AFC000E94DA0AEDE6F5E00E94110B0E94150B3C
:100B0C000E94A20A0E942E0BCC24DD240E94220BF0
:100B1C0034F40E94270BF60131966F01F7CFEEE10A
:100B2C00F0E00E941C0A879908C0E0E0DE01AD5796
:100B3C00BF4FED93ED93ED93EC9345CDFFCF1A930F
:100B4C000A93AA81BB8112960E94850E309729F1D7
:100B5C00AA81BB8114960E94850E8F01309761F09B
:100B6C000230E0E01E07C0F0F80131978F01AA8136
:100B7C00BB811496ED93FC93AA81BB8112960E94C3
:100B8C00EA0A3197AC81A083AA81BB810E94850EB1
:100B9C00FF2312F00E94EA0A06C0AA81BB81EFEF84
:100BAC00FFEFED93FC931981088125960895249706
:100BBC00E0E0E883E983E0E8EA83EFE3EB830E947B
:100BCC00BB0EEE85FF85EF3FAFEFFA0749F4E885E2
:100BDC00F985FA93EA93E2E7F1E00E94340BB8C08E
:100BEC00EF3FAFE7FA0749F4E885F985FA93EA9302
:100BFC00E3E7F1E00E94340BABC0AB85A73010F0FB
:100C0C00E6E0EB871B85E12F1150E03019F00E94D4
:100C1C00380BF9CFEC85FD856E857F850E94B50E6E
:100C2C0021F430E00E94380B2EC03B850E94470B0C
:100C3C0009F010F40C942D060E94380B0E94470BFF
:100C4C0028F00E94520B0E94570BF8CF0DC00E9447
:100C5C00470B40F40E94520B0E94630B0E946A0BDC
:100C6C003150F5CF0E94380BEC85FD856E857F8564
:100C7C000E946F0B0E946A0B0E94470B20F00E948F
:100C8C00520B0E94570B10E0EB85E117A8F1AC81D9
:100C9C00BD818E819F810E94760B0E946F0B0E94FA
:100CAC00A30E0E945509EC83FD836E837F830E9403
:100CBC00520B0E94780D0E94670C0E2F0E947D0B28
:100CCC000E94840BFF27662777270E94A00CAC811B
:100CDC00BD818E819F810E942A0D0E94520B0E9421
:100CEC00890B0E946A0BE12F1F5FE03069F60E94AE
:100CFC007D0BEEE2EC93C8CF0E948E0B3197AA8548
:100D0C00A08330302CF43195A885B985EDE203C071
:100D1C00A885B985EBE2EC930E948E0B0E948E0B9A
:100D2C003197BF01A32FEAE00E940B0EE05DDB01BF
:100D3C00EC930E948E0B3197BF01A32FEAE00E9427
:100D4C004D0EE05DDB01EC93A885B985E0E0EC93FA
:100D5C000E94C20E60960895EF9761970E94B90E9B
:100D6C0010E0FE01E85AFF4F0190F081E02DE8877A
:100D7C00F987FE01EA5AFF4F0190F081E02DEE83D6
:100D8C00FF83AE81BF81E0E0F0E0ED93FC93DE01E8
:100D9C00A45ABF4F0E94EA0A3197E4912E2FE030FB
:100DAC0011F40C94C708E12FE03039F4253211F41A
:100DBC0011E002C00E94940BE3C1E130C1F4253272
:100DCC0019F40E94940BDBC112E0E0E0ED8B00E023
:100DDC002D3211F401E0D4C12B3219F4EBE2ED8B7E
:100DEC00CFC1203219F4E0E2ED8BCAC102C0E2306F
:100DFC0039F450E013E0203311F40068C1C102C093
:100E0C00E33091F4203310F02A3308F007C0AAE045
:100E1C005A9F502DE22FE0535E0FB2C140E02E32AC
:100E2C0011F414E0ADC10FC0E43099F4203310F08C
:100E3C002A3308F008C00062AAE04A9F402DE22F36
:100E4C00E0534E0F9DC12C3619F4026015E098C189
:100E5C0004C0E53011F00C94C608E22FE33659F4C7
:100E6C000E949D0B0E94A40B0E949D0BA481AA932F
:100E7C000E94AB0B84C1E53411F0E53609F404C0D3
:100E8C00E63611F00C949407FE017696EE87FF87F8
:100E9C000E94B30B0E94890E0E94BA0B0E94BF0BDA
:100EAC00AD85AA2322F0AD89AB3249F017C00E9460
:100EBC00C10B0E94340C0E94BA0BEDE2ED8B07FFC4
:100ECC0005C0ED89EA930E94AB0B08C0EE85FF8547
:100EDC003196EE87FF873197AD89A08305FF46E0F9
:100EEC00263661F40E94C10B0E94A30E4A93EB8933
:100EFC00FC89FA93EA930E946C090BC00E94C10B07
:100F0C000E94A30E4A932A93EC89FD89FA93EA93E3
:100F1C004EDEFE0176960E94C60B1EC0E33739F4F6
:100F2C000E94BF0B0E94CE0B0E94C60B0EC0E03776
:100F3C00C1F40E94BF0B0E94CE0BEE87FF87FA9381
:100F4C00EA930E941B091E2F08600F77403011F0A6
:100F5C00411708F001C0142F40E0E0E0EC8B30E0CA
:100F6C006EC0E43611F0E93611F4046002C0E537C6
:100F7C00A1F4EAE0EC8B01FF08C0E0E0FAEC6AE9CE
:100F8C007BE30E94D30B1AE023C0E0E1F7E260E0C0
:100F9C0070E00E94D30B15E01BC0E83511F408601B
:100FAC0004C0E83711F00C94C508E0E1EC8B01FFAC
:100FBC0008C0E0E0F0E060E070E10E94D30B18E0C4
:100FCC0007C0E0E0F0E160E070E00E94D30B14E0B9
:100FDC00403011F00F7701C041E001FF08C00E94C2
:100FEC00BF0B0E94B30B14960E94890E0FC002FF18
:100FFC0007C00E94BF0B0E94CE0B0E94F80D06C0CA
:10100C000E94BF0B0E94CE0B66277727EA87FB87CF
:10101C006C877D8702FF12C0AD85AA2342F40E9423
:10102C00C10B0E94E50D0E94BA0BEDE2ED8BED8930
:10103C00E03019F01F5F4F5F01C00B7F342F00FDB4
:10104C0014C0151710F4351708F00FC007FF08C0AF
:10105C0002FF04C00B7F2D89115001C020E301C099
:10106C0020E20E94940B5150ECCF141790F40061C5
:10107C0002FF06C00E94D80B09F05150115041508C
:10108C00E0E3EA930E94AB0B503009F05150415011
:10109C00ECCF312FEC89E030B9F43030A1F003FF04
:1010AC0006C0EE85FF852591EE87FF8705C0AE85CE
:1010BC00BF852D91AE87BF870E94940B503009F0ED
:1010CC0051503150EACF51C00E94EC0B0E94280EB7
:1010DC002E2F2A3030F003FF02C0295C01C0295AA0
:1010EC0001C0205D04FD21C0213360F4A889B989B9
:1010FC008A899B89A130E0E0BE07E0E08E07E0E042
:10110C009E0709F40BC0431740F4531710F000FF6F
:10111C0001C010C020E207FF08C020E3006102FFFD
:10112C0004C00E94D80B09F051500E94940B50300F
:10113C0009F0515031500E94EC0B0E94670E0E9436
:10114C00BA0BEC89A889B9898A899B89FF276627FC
:10115C0077270E94280E0E94D30BE889F9896A89A7
:10116C007B890E94B50E09F0AFCF00FF08C050304C
:10117C0031F05150E0E2EA930E94AB0BF8CF10E053
:10118C0006CEAE81BF810E94850E0E94C00EEF96E6
:10119C006F960895FF92F82E26970E94BB0E0E9420
:1011AC00F50B309719F4EFEFFFEF25C0DE01169623
:1011BC000E94DD0D8D010E94F50BEE83FF83E0E0B4
:1011CC00E887E987DE011A960E94DD0D0E94850EE4
:1011DC00FA93EA931A930A93E5EAF5E0FA93EA9301
:1011EC00FE013A96FA93EA93B7DD9F01AE81BF8177
:1011FC00E0E0EC93F9010E94C20E2A96FF9008954C
:10120C00E991F991A991B991CD0105900D92002028
:10121C00E1F7FC010895A991B991EE27FF276D9193
:10122C00662311F03196FBCF0895AA27BB27E991CD
:10123C00F9910590002011F01196FBCFFD01089556
:10124C007B816A81F981E88177FB770F67FD71609B
:10125C00972F9E5781F078F0983190F4AA27BB27EE
:10126C00882708948795B795A7959A95D1F7EA237F
:10127C00FB23682305C0E8947727EE27FF27662712
:10128C006F77769508F4606877F9A991B99189918F
:10129C009991EA17FB076807790797FB08950E9455
:1012AC00FC0B0E94A30E0E9426090E94990E19F4B1
:1012BC000E94FC0B09C0E6F70E94FC0BA0E0B0E01A
:1012CC0080E89FE30E94D30C249608952497E0E0D5
:1012DC00E883E983EA83EFE3EB831A930A93EB85C4
:1012EC00FC85EF3FAFEFFA0729F483D2EAE7F1E090
:1012FC00B5D182C0EF3FAFE7FA0729F47AD2EBE71A
:10130C00F1E0ACD179C0AC85AA2352F4E985FA8519
:10131C006B857C850E94340C71D275D2EDE2EC9316
:10132C00A885A73010F0E6E0E8871885E12F11506A
:10133C00E03021F06FD2D4D172D2F8CF75D20E94A6
:10134C00DA0C5CD210E0E0E0F0E060E87FE367D21A
:10135C006BD20E94BD0D60F05DD2AFD160D21F5F29
:10136C00173228F046D2EFE7F1E078D145C0F0CF44
:10137C00103021F448D2E0E3EC931DC0E12F115062
:10138C00E030C9F047D2ACD1A4D10E94A30E0E9488
:10139C00550945D249D20E94780D0E94670C0E2F38
:1013AC0032D2ACD1F0E036D284D00E942A0D45D294
:1013BC00AAD124D2E3CFE885E030D1F024D2EEE2FA
:1013CC00EC93E885E150E887EF5F91F036D275D168
:1013DC0015D2E985FA856B857C850E94670C0E2FEA
:1013EC0012D28CD1F0E029D264D08DD107D2E9CFC2
:1013FC00AE81BF81E0E0EC93198108812D960895B0
:10140C00E0936500E09165000895E160E09365006C
:10141C0086EF8A95F1F7E881EBBB86EF8A95F1F7B9
:10142C00E0916500EE7FE09365000895FA93EA93EE
:10143C000C94280CEA930E942801E2E0EA930C94A5
:10144C003301E8E3EA930E942801E4E0EA930C9468
:10145C003301DF01E42DF0E0E156FA4FE081F0E0DA
:10146C00EA17FB070895D8010F5F1F4FA13DE7E076
:10147C00BE070895EC81E0937300E4E8E0937400F8
:10148C000895E0937300E4E8E09374000895D901A3
:10149C002F5F3F4FA13DE7E0BE070895FE01E658E0
:1014AC00FF4FE081EA930895A091A905B091AA0598
:1014BC0008950E94F80D0E94A00C0895E0E0F0E061
:1014CC0060E271E40E94780D0895DE01A954BF4FCB
:1014DC000D901D908D919C91D001F0CFDE01AD54FB
:1014EC00BF4F0D901D908D919C91D0010E949E0E2E
:1014FC000895F901DE01A557BF4F0E94ED0DAE0F07
:10150C00BF1F0E94890E0895FA01DE01A557BF4F37
:10151C000E94ED0DAE0FBF1F0E94890E0895DE01D3
:10152C00A557BF4F0E94ED0DEA0FFB1F0895A09128
:10153C00AB05B091AC050895FE01B896FA93EA9309
:10154C000895E6EFF0E0FA93EA9308950E94A30E53
:10155C0084E00E94D00828960895E4E1F0E066CF7C
:10156C00DE01A558BF4FED93FD936D937C930895C9
:10157C00FE01E558FF4F0190119061917081F001CF
:10158C0008950E94690CFA93EA930C947201FE017F
:10159C00FA93EA930895FE01E158FF4F01901190E0
:1015AC0061917081F001D2CFE0E0EA93EA930C9460
:1015BC004D01FA93EA930E943F01E1E0EA93E0E0E7
:1015CC00EA930E944D01E3CFED91FD913196FE938C
:1015DC00EE9308950E945701CBDFA0E0B0E080E8C5
:1015EC009FE30895FE01E158FF4F01901190619126
:1015FC007081F001A0E0B0E080E89FE30E94DA0C7B
:10160C00DE01AD57BF4F0D901D908D919C91D00177
:10161C000E94BD0D0895FA93EA930C943F01E1E00A
:10162C00EA93E0E0EA930C944D01E1E0EA93E7E001
:10163C00EA930E944D0180CFE9E1F0E0CE16DF067F
:10164C0008951E9A84EA98E00197F1F71E9885CFC9
:10165C000E943F01ECE0EA930C942801FA93EA9380
:10166C000C940609AC81BD818E819F81E0E0F0E095
:10167C0060E271E40E942A0DEC83FD836E837F830C
:10168C000895EC81FD816E817F81AC85BD858E8551
:10169C009F850E94BD0D0895AC85BD858E859F8567
:1016AC000895EDECFCEC6CEC7DE30E942A0DEC87CC
:1016BC00FD876E877F873F5F0895E0E0F0E060E292
:1016CC0071E40E942A0D0895EC87FD876E877F8751
:1016DC000895A0E0B0E080E09FE30E94DA0C08954A
:1016EC00EDECFCEC6CEC7DE30E942A0D0895A885D2
:1016FC00B9851196A887B98711970895E02FE05DF9
:10170C00EC93E02F08950E94A80E0E94D30C08952C
:10171C00E885F9853196E887F98708952A93EF8152
:10172C00F885FA93EA93EB85FC8509950895FE01FB
:10173C00E65AFF4F0190F081E02D08953497DE01B9
:10174C00A65ABF4FED93FC930895EF81F885FA9359
:10175C00EA93EB85FC8509950895DE01A65ABF4FE7
:10176C000D90BC91A02D0895EA87FB876C877D872F
:10177C000895DDDFE3CFEA85FB856C857D850895D3
:10178C00EE87FF87FA93EA930E9411091E2F0895A2
:10179C00E4DF14960E94850E0895E88BF98B6A8B12
:1017AC007B8B08950B7FED89EA93FE01E95AFF4F7D
:1017BC000190F081E02DFA93EA93FE01E55AFF4F78
:1017CC000190F081E02D099550300895E889F98950
:1017DC006A897B89AA85BB858C859D850895DE01E8
:1017EC001C960E94DD0D0E94850E08950E94940E99
:1017FC000895EE81FF81FA93EA930895E987FA87B9
:10180C006B877C870895AE81BF811196AE83BF83B1
:10181C0011970895AA81BB818C819D810895EA83DB
:10182C00FB836C837D830895EA81FB816C817D81D0
:10183C00A985BA858B859C850895A985BA858B85E4
:10184C009C850895E991F991309639F086E69EE0F1
:10185C000197F1F7A8953197C9F708953097604033
:10186C00704009F070580895552342F4503811F423
:10187C00E0FF04C03196691F791F6BF050E85727C1
:10188C0011F45F93CFC05F3F31F0660F000C57959A
:10189C006795752F08955F9300200AF0CFC0C8C0DC
:1018AC0050E8192E1522880F991F9527550F8795EB
:1018BC0050E8072E0522660F771F7527550F679581
:1018CC000895689401C0E8945F93F2DF703818F0C3
:1018DC007F3F08F4A7C056E1571BAAF45195583026
:1018EC000EF4593030F0EFEFFFEF6FEF7FE777F941
:1018FC001AC077275523B9F0EE0FFF1F661F771F0D
:10190C005A95D1F710C07727583028F0EF2FF62FC3
:10191C00672F5850F9CF552331F076956795F79589
:10192C00E7955A95D1F700200AF449D15F910895B3
:10193C00689401C0E894309760407040B1F0002486
:10194C0026F0772312F400943AD1172E7EE1112061
:10195C0032F07A95EE0FFF1F661F111CF9CFEF2F97
:10196C00F62F612D5F938ADF5F9108954F93AF013E
:10197C00FD01DA01AB01BC01CA01402D012C142E72
:10198C004F910895EA0FFB1F681F0895E095F0959D
:10199C006095EF5FFF4F6F4F08955F9381DF903835
:1019AC0071F150E8152604C05F937ADF903839F155
:1019BC00703821F1572F591B2BF112F4D7DFFACFC6
:1019CC00583118F0AA27BB278827583028F0AB2F9E
:1019DC00B82F88275850F9CF552329F08695B795FD
:1019EC00A7955A95D9F7502D512572F0CBDF38F4C5
:1019FC006795F795E795739513F420C0B7DF3EDF35
:101A0C005F910895D8F7FBCFEA1BFB0B680B51F0E5
:101A1C0010F40094BBDF662392F3EE0FFF1F661FDA
:101A2C007A95CBF7EE27FF27662777275F910895E6
:101A3C00EFEFFFEF6FE77FEF5F910895EFEFFFEFB1
:101A4C006FE77FE75F9108955F932ADF703851F35A
:101A5C00903841F301240894791F23F41CF30020DF
:101A6C003AF3ECCF0F921F932F933F934F93112781
:101A7C0022279927689FA0018F9F302D410D591F58
:101A8C006B9F300D411D591F8E9F27D0BF9F25D0B6
:101A9C006A9F23D0BE9F1DD0AF9F1BD0AE9F110D50
:101AAC00291F391F491F591FE32FF42F652F522F60
:101ABC004F913F912F911F910F9066232AF0550F54
:101ACC00EE1FFF1F661F02C073954BF2CDDE5F91B8
:101ADC000895100D211D391F02C0200D311D491F05
:101AEC00591F08955F93DCDE703821F411200AF43D
:101AFC009FCFA4CF903809F495CF01240894970B6D
:101B0C001BF4D4F30020F3CF792F1F932F933F9323
:101B1C004F9311241127222733274427552790E26E
:101B2C00AE17BF078607410730F0AE1BBF0B860B05
:101B3C00410B089401C08894551F221F331F111CA0
:101B4C00AA1FBB1F881F441F9A9551F7F901612DDD
:101B5C004F913F912F911F91662332F0550FEE1F3D
:101B6C00FF1F661F7A9543F27FDE5F9108959923DC
:101B7C009AF0772342F0971748F029F4AE17BF0775
:101B8C00860720F031F098948894089598940894DE
:101B9C0008951894889408957723C2F7971798F3AB
:101BAC00A9F7EA17FB07680788F399F3ECCF002431
:101BBC00AF0DB01D0895F195E195F0400895F095A5
:101BCC0060957095E195FF4F6F4F7F4F0895EE0F25
:101BDC00FF1FEE0FFF1F0895FE2FFF0FFF0B6F2F40
:101BEC007F2F08956F2F660F660B762F08950024B4
:101BFC0098E0AA0F001C0E1A10F40E0E01C0A16082
:101C0C009A95B9F7EA2FA02D08955FD0F0DF0EF466
:101C1C00E19508950024112490E1AA0FBB1F001C2C
:101C2C00111C0E1A1F0A18F40E0E1F1E01C0A16003
:101C3C009A9599F7FD01D001089553D0EBDF0EF47E
:101C4C00BADF08953F934F935F93002411244427E8
:101C5C00552730E2AA0FBB1F881F991F001C111CAF
:101C6C00441F551F0E1A1F0A460B570B28F40E0E55
:101C7C001F1E461F571F01C0A1603A9559F7FD0161
:101C8C00BC01D001CA015F914F913F910895E89436
:101C9C00A7FF02C0A1956894E7FDE195A8DFEA2FA4
:101CAC000EF4E1950895E894B7FF04C0A095B095A3
:101CBC0011966894F7FD7FDFADDFFD010EF47BDF3D
:101CCC000895C0DFFD01BC010895E894E7FF02C050
:101CDC00E1956894A7FF04C0A19500F8039400FA5D
:101CEC000895E894F7FF02C066DF6894B7FF06C05A
:101CFC00A095B095119600F8039400FA0895ED9113
:101D0C00FC9111970895ED91FD916D917C91139734
:101D1C000895ED93FD936D937C930895E881F9817B
:101D2C006A817B810895E883F9836A837B830895B4
:101D3C00A083B1838283938308957A936A93FA93F1
:101D4C00EA930895182E862F612D192E972F712D39
:101D5C001B2EBF2FF12D1A2EAE2FE12D089530978B
:101D6C006040704008955A934A933A932A931A9379
:101D7C000A9308955D814C813B812A8119810881E8
:101D8C000895AC0FBD1F05900D928A95E1F708954B
:00000001FF
